:020000040800F2
:100000009004002045010008490100084B01000848
:100010004D0100084F0100085101000800000000D8
:100020000000000000000000000000005301000874
:1000300055010008000000005701000859010008A0
:100040005B0100085B0100085B0100089D270008B8
:100050005B0100085B0100085B0100085B01000810
:100060005B0100085B0100085B0100085B01000800
:100070005B0100085B0100085B0100085B010008F0
:100080005B0100085B0100085B0100085B010008E0
:100090005B0100085B0100085B0100085B010008D0
:1000A0005B0100085B0100085B0100085B010008C0
:1000B0005B0100085B0100085B0100085B010008B0
:1000C0005B0100085B0100085B0100085B010008A0
:1000D0005B0100085B0100085B0100085B01000890
:1000E0005B0100085B0100085B0100085B01000880
:1000F0005B0100085B0100085B0100085B01000870
:100100005B0100085B0100085B0100085B0100085F
:100110005B0100085B0100085B0100085B0100084F
:100120005B0100085B0100085B0100085B0100083F
:10013000DFF80CD000F034F900480047A92F000880
:100140009004002005480047FEE7FEE7FEE7FEE7D3
:10015000FEE7FEE7FEE7FEE7FEE7FEE73101000807
:10016000421C10F8011B0029FBD1801A7047F0B423
:1001700080EA0102D40F4200B2EB410F02D20246E4
:10018000084611464A0042D0C30DDDB2C1F3C75242
:10019000AD1A202D35DAC1F3160141F4000204B185
:1001A0005242C5F1200602FA06F12A411044B3EB8F
:1001B000D05F23D0C4B1012DA0EBC35009DCF0BC4B
:1001C0004FF0004202EAC352DBB200F5000000F03B
:1001D000B8B8400000F1807000EBC350A0F180700F
:1001E00040EAD170490009E0490841EAC071A0EB3A
:1001F000C35000F50000400800EBC350F0BC00F015
:1002000097B86142012202EB4101001BF6E7F0BC06
:10021000704781F00041AAE780F00040A7E780EA3C
:10022000010210B502F00043400022D04A001FD066
:10023000010E01EB1261C0F35600C2F3560240F406
:10024000000042F40002A0FB022000047F391404E5
:1002500000D0401C50EA124001D44000491EC2B2F6
:100260000C0604EBD010401C4008802A02D003E0AA
:10027000002010BD20F00100002900DA0020184302
:1002800010BD30B480EA010202F0004530F00042B7
:1002900021F0004013D090B1C30DD40DC2F316016C
:1002A000C0F31600E41A41F4000140F400027D346A
:1002B000914201D3641C00E04900002C02DA30BCFA
:1002C000002070474FF400000023914201D3891AA7
:1002D000034340084FEA4101F7D151B1914202D1A5
:1002E0004FF0004105E002D24FF0010101E06FF054
:1002F000010103EBC450284430BC00F019B8962328
:100300000022114600F01DB820F00040C10DC0F3DE
:10031000160040F400007F2901DA0020704796297A
:1003200003DCC1F19601C840704796398840704798
:100330000029A8BF7047401C490008BF20F00100F9
:10034000704710B4B0FA80FC00FA0CF050EA0104D7
:1003500004BF10BC704749B1CCF1200421FA04F469
:1003600011FA0CF118BF012121430843A3EB0C0142
:10037000CB1D4FEA00614FEA102042BF002010BCA5
:10038000704700EBC35010440029A4BF10BC704755
:10039000401C490008BF20F0010010BC704700005D
:1003A000064C074D06E0E06840F0010394E80700C2
:1003B00098471034AC42F6D3FFF7BEFEA84B0008B6
:1003C000C84B00080A48806940F008000849886165
:1003D0000848006820F00F000649086008460068D9
:1003E00040F00300086000200349086070470000E7
:1003F00000100240040C0140A081214210B50020F1
:10040000104908601048006820F0F0000E490860AC
:100410000846006840F030000860052002F0A6FDA4
:1004200000200A49C1F8A401052002F09FFD012027
:1004300004490860052002F099FD00200449C1F834
:10044000840110BD84812142041C014000802342AC
:100450000080214210B50020104908601048006853
:1004600020F0F0000E4908600846006840F03000B7
:100470000860052002F07AFD01200A49C1F8A401B4
:10048000052002F073FD012004490860052002F0F8
:100490006DFD00200449C1F8840110BD8481214212
:1004A000041C0140008023420080214270B50546B3
:1004B00000241648006820F0F0001449086008463F
:1004C000006840F0800008601E2002F04FFD00260A
:1004D00012E000200E490860052002F047FD0120CF
:1004E0000C49C1F884016006040E0B48006808B18D
:1004F000601CC4B2701CC6B2082EEADB15B9FFF747
:10050000A9FF01E0FFF77AFF204670BD041C0140FF
:1005100084812142008021422481234270B5044617
:100520001448006820F0F00012490860084600688E
:1005300040F03000086000200F490860052002F0FC
:1005400015FD002513E0E0090C4908606006040E63
:1005500001200B49C1F88401052002F007FD0020AD
:1005600005490860052002F001FD681CC5B2082D90
:10057000E9DB70BD041C014084812142A481234237
:100580000080214210B50F48006820F0F0000D49AE
:1005900008600846006840F03000086001200A4901
:1005A00008600A49C1F884011E2002F0DFFC002027
:1005B00005490860052002F0D9FC00200349C1F874
:1005C000840110BD041C0140A4812342008021420B
:1005D00010B50E48006820F0F0000C49086008468D
:1005E000006840F0300008600120094908601E20C2
:1005F00002F0BCFC00200749C1F8A401052002F06C
:10060000B5FC01200449086010BD0000041C014035
:100610008481214200802342A481234210B500241A
:100620001448006820F0F00012490860084600688D
:1006300040F08000086001200F4908600F49C1F8B0
:100640008401052002F092FC0AE0601CC4B2FA2C7E
:1006500003DDFFF7BDFF012010BD052002F086FC81
:100660000548803800680028EFD10549086000BFC0
:10067000F2E70000041C0140A481234200802142D3
:10068000848121422DE9F84305460E464FF4784017
:10069000314908803148008800EB4000304483B283
:1006A0002F48008805EB400082B23146284600F012
:1006B0009DFC2A49098801EB410131448BB228494C
:1006C000098805EB41018AB225490988294488B285
:1006D000314600F08BFC2148008806EB400083B2D5
:1006E0001F48008805EB400082B21C480088304457
:1006F00081B2284600F07AFC1F20174908800024A8
:1007000025E017480078274604EBD7734FEA630CBF
:1007100006F11003DFF844900090B9F8009009FB4F
:100720000C3399B2A04604EBD8735B10A4EB4303DF
:10073000DFF82CC0BCF800C003FB0C5398B2094B87
:1007400053F82420182302F0FBFA601C84B2062C14
:10075000D7DBBDE8F8830000320000200A0000204B
:10076000080000200C0000201CB54248806940F0C1
:100770008000404988610846806940F0080088612F
:100780003D48006820F47F403B4908600846006807
:1007900040F46050086038480830006840F4406019
:1007A0003549083108603448006820F0F0003249CB
:1007B00008600846006840F0300008602E480830A5
:1007C000006840F400702C49083108602B4800682C
:1007D00020F0F000294908600846006840F0300029
:1007E000086026480C30006840F0020023490C31B4
:1007F00008600020224908600A2002F099FB0120CD
:100800002049C1F8AC010A2002F092FB1A480068A6
:1008100020F47060184908600846006840F40060E1
:10082000086015480830006820F4806012490831DB
:100830000860642002F07CFB02208DF80000012299
:10084000694648F2400000F043F90122694648F247
:10085000470000F019F80A2002F06AFB00208DF82A
:1008600000000122694648F2400000F031F9012001
:100870001CBD000000100240041C0140000C01409F
:10088000AC812342008023422DE9F04105460F460A
:100890001646FFF777FE2820FFF740FEFFF7BEFE63
:1008A0002812FFF73BFEFFF7B9FEE8B2FFF736FE6E
:1008B000FFF7B4FEFFF766FE2920FFF72FFEFFF7D4
:1008C000ADFE00240BE0711EA14201D0012100E029
:1008D00000210846FFF7EAFD3855601CC4B2B44257
:1008E000F1DBFFF775FEBDE8F081000071B583B064
:1008F0000024002672480078401C714908700846A0
:1009000000780A2190FBF1F201FB120018B16C484B
:1009100000780A287EDA012203A948F24E10FFF778
:10092000B3FF9DF80C0000F0800068B19DF80C004A
:1009300000F00F00062807DA00200190012201A92B
:1009400048F24E1000F0C4F89DF80C0000F00F00C3
:1009500000285FD09DF80C0000F00F000628D9DABF
:100960009DF80C0000F00F01FF208840C0B20190FC
:100970005448057D9DF80400C043C0B240F0C0005B
:100980005049087508460088088108464189418217
:1009900000243EE04B48007D0121A140084008B3FF
:1009A000494931F81400042202A9FFF76DFF4548B8
:1009B000407D00F00100B0B19DF808009DF80910DD
:1009C00000EB012081B23F480A3020F814109DF856
:1009D0000A009DF80B1000EB0120C0F54870394962
:1009E00021F8140013E09DF808009DF8091000EBB1
:1009F0000120344921F814009DF80A009DF80B10DD
:100A000000EB012081B22F480A3020F81410601C3E
:100A1000C4B200E02EE0052CBCDB0126294800888A
:100A20002A490988884205DC26484089274949889F
:100A300088421CDD9DF80C0000F00F0001280ADD43
:100A4000204840881F490880084680894881002046
:100A50001B4908700EE01B4800891A4908800846A7
:100A6000408A4881802003900846057502E00020F6
:100A7000134908709DF80C0000F08F00802815D1F4
:100A80001048007D00F0800030B10E48007D20F05D
:100A900080000C49087509E04FF6FF70094908808D
:100AA00048810846007D00F0E000087504480078A1
:100AB000F02802DD0A2002490870304604B070BDFB
:100AC000400000207A0000205C4B00086C000020F1
:100AD0002DE9F04104460E4617464FF00008FFF797
:100AE00051FD2820FFF71AFDFFF798FD2012FFF7B0
:100AF00015FDFFF793FDE0B2FFF710FDFFF78EFD48
:100B000000250BE0705DFFF709FDFFF787FD8046CC
:100B1000B8F1000F00D003E0681CC5B2BD42F1DBA4
:100B200000BFFFF755FD4046BDE8F0810146CA17FA
:100B300001EB92729210A1EB820292B9642091FBB8
:100B4000F0F200FB121050B94FF4C87091FBF0F2B4
:100B500000FB121008B9012070470020FCE70120BB
:100B6000FAE70020F8E700001448806940F004002C
:100B7000124988610846806940F040008861104849
:100B8000006820F00F000E4908600846006840F039
:100B9000080008600B48006820F47F2009490860BD
:100BA0000846006840F40820086006480C300068D9
:100BB00040F0180003490C310860704700100240F3
:100BC00000080140001801400348006808B90120EE
:100BD00070470020FCE70000100123422DE9F0419E
:100BE00006460F464FF000080020FFF77FFE33480F
:100BF000007D00F0800000284FD000244AE000254E
:100C000028E02E480188601C2D4A128800FB0260F3
:100C100081421DDA294800882949098804FB0161BD
:100C2000884215DD25484189681C264A128800FB48
:100C3000027081420CDA214840892249098805FB6B
:100C40000171884204DD04EB450000F0FF0803E079
:100C5000681C85B2032DD4DB00BFB8F1000F17D09C
:100C600019480078404502D14FF000080FE00023FA
:100C7000154802783946304600F028F8124880F8C6
:100C80000080012302783946304600F01FF803E067
:100C9000601C84B2022CB2DB0CE00B48007848B137
:100CA0000023094802783946304600F00FF800204A
:100CB0000549087004480078BDE8F0817A000020FA
:100CC000080000200A0000202C0000202DE9F84F29
:100CD0000746884614469A46052C01DC012C01DAA9
:100CE000BDE8F88FBAF1000F4ED01F20254604EB67
:100CF000D57C4FEA6C0CDFF87CE10090BEF800E098
:100D00000CFB0E8CDFF86CE1BEF800E0F444ACF1B3
:100D1000010C1FFA8CF3264604EBD67C4FEA6C0CD0
:100D2000A4EB4C0CDFF850E1BEF800E00CFB0E7CAD
:100D3000DFF844E1BEF800E0F444ACF1010C1FFA26
:100D40008CF2A14604EBD97C4FEA6C0CDFF824E16D
:100D5000BEF800E00CFB0E8C0CF1010C1FFA8CF1BC
:100D6000A34604EBDB7C4FEA6C0CA4EB4C0CDFF8E5
:100D700008E1BEF800E00CFB0E7C0CF1010C1FFA40
:100D80008CF000F07FF94EE04FF6FF70254604EB43
:100D9000D57C4FEA6C0CDFF8DCE00090BEF800E098
:100DA0000CFB0E8CDFF8CCE0BEF800E0F444ACF1B4
:100DB000010C1FFA8CF3264604EBD67C4FEA6C0C30
:100DC000A4EB4C0CDFF8B0E0BEF800E00CFB0E7CAE
:100DD000DFF8A4E0BEF800E0F444ACF1010C1FFA27
:100DE0008CF2A14604EBD97C4FEA6C0CDFF884E06E
:100DF000BEF800E00CFB0E8C0CF1010C1FFA8CF11C
:100E0000A34604EBDB7C4FEA6C0CA4EB4C0CDFF844
:100E100068E0BEF800E00CFB0E7C0CF1010C1FFA40
:100E20008CF000F02FF914480078254604EBD573B8
:100E30004FEA630C08F11003DFF838900090B9F81E
:100E4000009009FB0C3399B2264604EBD6735B1075
:100E5000A4EB4303DFF820C0BCF800C003FB0C7315
:100E600098B2064B53F82420182301F069FF00BF05
:100E700036E700000A000020080000200C000020D7
:100E800070B504460026094805884088454300217E
:100E9000084601F01FFA01F061FB00BF02E00448C0
:100EA0000480761CAE42FAD370BD00006C000020B6
:100EB0000008006C10B50446BCB9002015498871C3
:100EC000F02008804FF4A07048804FF43050088123
:100ED0004FF4285048814FF42C5088814FF4F07023
:100EE00008804FF4487048800FE04FF430500949B3
:100EF00008814FF4285048814FF42C5088814FF4DA
:100F0000487008804FF4F0704880002001F062F9CA
:100F100010BD00006C0000202DE9FF4F84B0814619
:100F20008A460020039002900698A0EB09050798D6
:100F3000A0EB0A06CDF80490CDF800A0002D01DD4D
:100F4000012705E00DB9002702E04FF0FF376D42A1
:100F5000002E02DD4FF0010806E016B94FF0000840
:100F600002E04FF0FF387642B54201DD2C4600E04A
:100F700034464FF0000B21E0009A91B2019A90B2F2
:100F800000F022F80398284403900298304402901D
:100F90000398A04205DD0398001B03900198384494
:100FA00001900298A04205DD0298001B0290009873
:100FB000404400900BF101001FFA80FB601C834548
:100FC000DADD08B0BDE8F08F30B504460D4629469D
:100FD000204601F07FF901F0C1FA02480088024979
:100FE000088030BD320000200008006CF0B50446D7
:100FF0000D4616461F462B46324629462046FFF729
:101000008BFF3B46224629462046FFF785FF3B469D
:10101000324639462046FFF77FFF3B463246294697
:101020003046FFF779FFF0BD10B503460C46134973
:10103000488901F08DFA181201F084FA0F494989A4
:10104000491C88B201F084FAD8B201F07BFA0B494E
:10105000888901F07DFA201201F074FA0749898924
:10106000491C88B201F074FAE0B201F06BFA03484F
:10107000008903490880881C028010BD6C00002094
:10108000FE07006C2DE9FC4F05460E4617469846B4
:10109000DDF82C90002001902748808846F6040156
:1010A000884229D124488079012825D1AB4635468C
:1010B00021480088C01B401E86B247461E48008853
:1010C000A0EB0B00401E1FFA80F800201A4988711F
:1010D0002A2048812B20888143463A4631462846BB
:1010E000CDF80090FFF7CEFF0120134988712B2027
:1010F00048812A2088811CE0781B401C80B2019026
:10110000344614E02146284601F0E4F801F026FABE
:101110004FF0000A06E00948A0F800900AF101002B
:101120001FFA80FA01988245F5DB601C84B24445C1
:10113000E8DDBDE8FC8F00006C0000200008006CBA
:1011400010B5FE48406940F48070FC49486108468B
:10115000806940F0080088610846806940F02000FE
:1011600088610846806940F04000886108468069CF
:1011700040F480708861F248006820F00F00F04968
:1011800008600846006840F003000860ED48006809
:10119000ED490840EB49086008460068EB49084300
:1011A000E8490860081F006800F0FF20091F086078
:1011B0000846006840F0BB100860E5480068002061
:1011C000E34908600846006840F0BB300860081F2B
:1011D000006820F07040091F08600846006840F071
:1011E00030400860DB48406820F47020D9494860EE
:1011F0000846406840F4302048600846006820F007
:101200000F0008600846006840F00B0008600020EE
:101210004FF020418861C861CF4908604FF02040FD
:10122000806940F480504FF0204188610846806911
:1012300040F4804088610846806940F01000886171
:101240000846C069C8610846C06940F00100C8612D
:101250000846C06940F47060C861BF480068C1F8C2
:101260001C01BD480068C1F81C010846D0F81C01EB
:1012700040F44070C1F81C010846806940F001004C
:101280008861322001F054FE55214FF4704001F086
:101290006FF9AA214FF2010001F06AF952214FF2D1
:1012A000020001F065F908214FF2030001F060F936
:1012B00001214FF2040001F05BF90D214FF43040A1
:1012C00001F056F90D214BF2010001F051F90D2109
:1012D0004BF2020001F04CF934214FF4364001F09A
:1012E00047F934214BF2016001F042F934214BF20D
:1012F000026001F03DF90D214FF4314001F038F961
:101300000D214BF2011001F033F90D214BF20210C7
:1013100001F02EF934214FF4374001F029F934213E
:101320004BF2017001F024F934214BF2027001F00C
:101330001FF900214FF4324001F01AF900214BF25D
:10134000012001F015F900214BF2022001F010F903
:1013500024214FF4384001F00BF924214BF6010011
:1013600001F006F924214BF6020001F001F90121F8
:101370004FF43F4001F0FCF80F214FF4334001F0EF
:10138000F7F80F214BF2013001F0F2F80F214BF288
:10139000023001F0EDF834214FF4394001F0E8F863
:1013A00034214BF6011001F0E3F834214BF6021022
:1013B00001F0DEF808214FF4354001F0D9F808219A
:1013C0004BF2015001F0D4F808214BF2025001F029
:1013D000CFF803214FF4424001F0CAF824214FF422
:1013E0003A4001F0C5F824214BF6012001F0C0F885
:1013F00024214BF6022001F0BBF800214FF43C40C1
:1014000001F0B6F878214BF6014001F0B1F8002167
:101410004BF6024001F0ACF800214FF43D4001F0E2
:10142000A7F878214BF6015001F0A2F800214BF605
:10143000025001F09DF800214FF43E4001F098F871
:1014400064214BF6016001F093F800214FF4514004
:1014500001F08EF833214DF2011001F089F80021DE
:101460004DF2021001F084F834214DF2031001F026
:101470007FF800214DF2041001F07AF83A214DF284
:10148000051001F075F800214DF2061001F070F81A
:101490004A214DF2071001F06BF800214DF20810BF
:1014A00001F066F85C214DF2091001F061F80021AD
:1014B0004DF20A1001F05CF881214DF20B1001F0A1
:1014C00057F800214DF20C1001F052F8A6214DF210
:1014D0000D1001F04DF800214DF20E1001F048F80A
:1014E000E5214DF20F1001F043F801214DF21010EB
:1014F00001F03EF813214DF2111001F039F80121ED
:101500004DF2121001F034F854214DF2131001F095
:101510002FF801214DF2141001F02AF882214DF22A
:10152000151001F025F801214DF2161001F020F8F8
:10153000CA214DF2171001F01BF80FE00010024015
:10154000000C01400414014000F0FF00BB0B00BB85
:1015500004180140002001401C0100A002214DF2AE
:10156000181001F005F800214DF2191001F000F8F3
:1015700002214DF21A1000F0FBFF01214DF21B1069
:1015800000F0F6FF02214DF21C1000F0F1FF3421B3
:101590004DF21D1000F0ECFF02214DF21E1000F084
:1015A000E7FF67214DF21F1000F0E2FF02214DF22C
:1015B000201000F0DDFF84214DF2211000F0D8FF53
:1015C00002214DF2221000F0D3FFA4214DF223108E
:1015D00000F0CEFF02214DF2241000F0C9FFB72128
:1015E0004DF2251000F0C4FF02214DF2261000F04C
:1015F000BFFFCF214DF2271000F0BAFF02214DF2BC
:10160000281000F0B5FFDE214DF2291000F0B0FFE8
:1016100002214DF22A1000F0ABFFF2214DF22B1007
:1016200000F0A6FF02214DF22C1000F0A1FFFE21D8
:101630004DF22D1000F09CFF03214DF22E1000F012
:1016400097FF10214DF22F1000F092FF03214DF271
:10165000301000F08DFF33214DF2311000F088FF83
:1016600003214DF2321000F083FF6D214DF2331053
:1016700000F07EFF00214FF4524000F079FF33214B
:101680004DF2012000F074FF00214DF2022000F025
:101690006FFF34214DF2032000F06AFF00214DF26C
:1016A000042000F065FF3A214DF2052000F060FFB4
:1016B00000214DF2062000F05BFF4A214DF2072089
:1016C00000F056FF00214DF2082000F051FF5C2190
:1016D0004DF2092000F04CFF00214DF20A2000F0ED
:1016E00047FF81214DF20B2000F042FF00214DF217
:1016F0000C2000F03DFFA6214DF20D2000F038FF38
:1017000000214DF20E2000F033FFE5214DF20F20B5
:1017100000F02EFF01214DF2102000F029FF1321CF
:101720004DF2112000F024FF01214DF2122000F0B3
:101730001FFF54214DF2132000F01AFF01214DF23A
:10174000142000F015FF82214DF2152000F010FF4B
:1017500001214DF2162000F00BFFCA214DF2172097
:1017600000F006FF02214DF2182000F001FF0021D9
:101770004DF2192000F0FCFE02214DF21A2000F07B
:10178000F7FE01214DF21B2000F0F2FE02214DF286
:101790001C2000F0EDFE34214DF21D2000F0E8FE8B
:1017A00002214DF21E2000F0E3FE67214DF21F20C2
:1017B00000F0DEFE02214DF2202000F0D9FE84214F
:1017C0004DF2212000F0D4FE02214DF2222000F043
:1017D000CFFEA4214DF2232000F0CAFE02214DF2DB
:1017E000242000F0C5FEB7214DF2252000F0C0FEF8
:1017F00002214DF2262000F0BBFECF214DF2272022
:1018000000F0B6FE02214DF2282000F0B1FEDE21EC
:101810004DF2292000F0ACFE02214DF22A2000F00A
:10182000A7FEF2214DF22B2000F0A2FE02214DF284
:101830002C2000F09DFEFE214DF22D2000F098FEA0
:1018400003214DF22E2000F093FE10214DF22F20A7
:1018500000F08EFE03214DF2302000F089FE33218E
:101860004DF2312000F084FE03214DF2322000F0D1
:101870007FFE6D214DF2332000F07AFE00214FF4FF
:10188000534000F075FE33214DF2013000F070FE40
:1018900000214DF2023000F06BFE34214DF2033096
:1018A00000F066FE00214DF2043000F061FE3A21A6
:1018B0004DF2053000F05CFE00214DF2063000F0E4
:1018C00057FE4A214DF2073000F052FE00214DF242
:1018D000083000F04DFE5C214DF2093000F048FE6A
:1018E00000214DF20A3000F043FE81214DF20B3011
:1018F00000F03EFE00214DF20C3000F039FEA62132
:101900004DF20D3000F034FE00214DF20E3000F0AB
:101910002FFEE5214DF20F3000F02AFE01214DF29D
:10192000103000F025FE13214DF2113000F020FEA2
:1019300001214DF2123000F01BFE54214DF2133004
:1019400000F016FE01214DF2143000F011FE82214C
:101950004DF2153000F00CFE01214DF2163000F072
:1019600007FECA214DF2173000F002FE02214DF2AF
:10197000183000F0FDFD00214DF2193000F0F8FDA7
:1019800002214DF21A3000F0F3FD01214DF21B301F
:1019900000F0EEFD02214DF21C3000F0E9FD342193
:1019A0004DF21D3000F0E4FD02214DF21E3000F03A
:1019B000DFFD67214DF21F3000F0DAFD02214DF20C
:1019C000203000F0D5FD84214DF2213000F0D0FD13
:1019D00002214DF2223000F0CBFDA4214DF2233044
:1019E00000F0C6FD02214DF2243000F0C1FDB72108
:1019F0004DF2253000F0BCFD02214DF2263000F002
:101A0000B7FDCF214DF2273000F0B2FD02214DF29B
:101A1000283000F0ADFDDE214DF2293000F0A8FDA8
:101A200002214DF22A3000F0A3FDF2214DF22B30BD
:101A300000F09EFD02214DF22C3000F099FDFE21B8
:101A40004DF22D3000F094FD03214DF22E3000F0C8
:101A50008FFD10214DF22F3000F08AFD03214DF251
:101A6000303000F085FD33214DF2313000F080FD43
:101A700003214DF2323000F07BFD6D214DF2333009
:101A800000F076FD00214FF4544000F071FD332149
:101A90004DF2014000F06CFD00214DF2024000F0DB
:101AA00067FD34214DF2034000F062FD00214DF24C
:101AB000044000F05DFD3A214DF2054000F058FD74
:101AC00000214DF2064000F053FD4A214DF207403F
:101AD00000F04EFD00214DF2084000F049FD5C2170
:101AE0004DF2094000F044FD00214DF20A4000F0A3
:101AF0003FFD81214DF20B4000F03AFD00214DF2F7
:101B00000C4000F035FDA6214DF20D4000F030FDF7
:101B100000214DF20E4000F02BFDE5214DF20F406B
:101B200000F026FD01214DF2104000F021FD1321AF
:101B30004DF2114000F01CFD01214DF2124000F069
:101B400017FD54214DF2134000F012FD01214DF21A
:101B5000144000F00DFD82214DF2154000F008FD0B
:101B600001214DF2164000F003FDCA214DF217404D
:101B700000F0FEFC02214DF2184000F0F9FC0021BB
:101B80004DF2194000F0F4FC02214DF21A4000F031
:101B9000EFFC01214DF21B4000F0EAFC02214DF266
:101BA0001C4000F0E5FC34214DF21D4000F0E0FC4B
:101BB00002214DF21E4000F0DBFC67214DF21F4078
:101BC00000F0D6FC02214DF2204000F0D1FC84212F
:101BD0004DF2214000F0CCFC02214DF2224000F0F9
:101BE000C7FCA4214DF2234000F0C2FC02214DF2BB
:101BF000244000F0BDFCB7214DF2254000F0B8FCB8
:101C000002214DF2264000F0B3FCCF214DF22740D7
:101C100000F0AEFC02214DF2284000F0A9FCDE21CC
:101C20004DF2294000F0A4FC02214DF22A4000F0C0
:101C30009FFCF2214DF22B4000F09AFC02214DF264
:101C40002C4000F095FCFE214DF22D4000F090FC60
:101C500003214DF22E4000F08BFC10214DF22F405D
:101C600000F086FC03214DF2304000F081FC33216E
:101C70004DF2314000F07CFC03214DF2324000F087
:101C800077FC6D214DF2334000F072FC00214FF4DF
:101C9000554000F06DFC33214DF2015000F068FC1E
:101CA00000214DF2025000F063FC34214DF203504C
:101CB00000F05EFC00214DF2045000F059FC3A2186
:101CC0004DF2055000F054FC00214DF2065000F09A
:101CD0004FFC4A214DF2075000F04AFC00214DF222
:101CE000085000F045FC5C214DF2095000F040FC2A
:101CF00000214DF20A5000F03BFC81214DF20B50C7
:101D000000F036FC00214DF20C5000F031FCA62111
:101D10004DF20D5000F02CFC00214DF20E5000F061
:101D200027FCE5214DF20F5000F022FC01214DF27D
:101D3000105000F01DFC13214DF2115000F018FC62
:101D400001214DF2125000F013FC54214DF21350BA
:101D500000F00EFC01214DF2145000F009FC82212C
:101D60004DF2155000F004FC01214DF2165000F028
:101D7000FFFBCA214DF2175000F0FAFB02214DF291
:101D8000185000F0F5FB00214DF2195000F0F0FB67
:101D900002214DF21A5000F0EBFB01214DF21B50D5
:101DA00000F0E6FB02214DF21C5000F0E1FB342173
:101DB0004DF21D5000F0DCFB02214DF21E5000F0F0
:101DC000D7FB67214DF21F5000F0D2FB02214DF2EC
:101DD000205000F0CDFB84214DF2215000F0C8FBD3
:101DE00002214DF2225000F0C3FBA4214DF22350FA
:101DF00000F0BEFB02214DF2245000F0B9FBB721E8
:101E00004DF2255000F0B4FB02214DF2265000F0B7
:101E1000AFFBCF214DF2275000F0AAFB02214DF27B
:101E2000285000F0A5FBDE214DF2295000F0A0FB68
:101E300002214DF22A5000F09BFBF2214DF22B5073
:101E400000F096FB02214DF22C5000F091FBFE2198
:101E50004DF22D5000F08CFB03214DF22E5000F07E
:101E600087FB10214DF22F5000F082FB03214DF231
:101E7000305000F07DFB33214DF2315000F078FB03
:101E800003214DF2325000F073FB6D214DF23350BF
:101E900000F06EFB00214FF4564000F069FB332147
:101EA0004DF2016000F064FB00214DF2026000F091
:101EB0005FFB34214DF2036000F05AFB00214DF22C
:101EC000046000F055FB3A214DF2056000F050FB34
:101ED00000214DF2066000F04BFB4A214DF20760F5
:101EE00000F046FB00214DF2086000F041FB5C2150
:101EF0004DF2096000F03CFB00214DF20A6000F059
:101F000037FB81214DF20B6000F032FB00214DF2D6
:101F10000C6000F02DFBA6214DF20D6000F028FBB7
:101F200000214DF20E6000F023FBE5214DF20F6021
:101F300000F01EFB01214DF2106000F019FB13218F
:101F40004DF2116000F014FB01214DF2126000F01F
:101F50000FFB54214DF2136000F00AFB01214DF2FA
:101F6000146000F005FB82214DF2156000F000FBCB
:101F700001214DF2166000F0FBFACA214DF2176004
:101F800000F0F6FA02214DF2186000F0F1FA00219B
:101F90004DF2196000F0ECFA02214DF21A6000F0E7
:101FA000E7FA01214DF21B6000F0E2FA02214DF246
:101FB0001C6000F0DDFA34214DF21D6000F0D8FA0B
:101FC00002214DF21E6000F0D3FA67214DF21F602E
:101FD00000F0CEFA02214DF2206000F0C9FA84210F
:101FE0004DF2216000F0C4FA02214DF2226000F0AF
:101FF000BFFAA4214DF2236000F0BAFA02214DF29B
:10200000246000F0B5FAB7214DF2256000F0B0FA77
:1020100002214DF2266000F0ABFACF214DF227608D
:1020200000F0A6FA02214DF2286000F0A1FADE21AC
:102030004DF2296000F09CFA02214DF22A6000F076
:1020400097FAF2214DF22B6000F092FA02214DF244
:102050002C6000F08DFAFE214DF22D6000F088FA20
:1020600003214DF22E6000F083FA10214DF22F6013
:1020700000F07EFA03214DF2306000F079FA33214E
:102080004DF2316000F074FA03214DF2326000F03D
:102090006FFA6D214DF2336000F06AFA55214FF46A
:1020A000704000F065FAAA214FF2010000F060FADA
:1020B00052214FF2020000F05BFA08214FF20300B8
:1020C00000F056FA00214FF2040000F051FACC2142
:1020D0004FF4314000F04CFA00214BF2011000F0B7
:1020E00047FA05214FF4364000F042FA70214FF4D0
:1020F000374000F03DFA70214BF2017000F038FAE1
:1021000001214FF4384000F033FA03214BF601006F
:1021100000F02EFA03214BF6020000F029FA032109
:102120004BF6030000F024FA02214FF43C4000F08B
:102130001FFA00214BF6014000F01AFA00214BF67D
:10214000024000F015FAD0214FF4494000F010FA97
:1021500002214CF6011000F00BFA50214CF602104F
:1021600000F006FA50214CF6031000F001FA50215D
:102170004CF6041000F0FCF900214FF4545000F02C
:10218000F7F955214FF4685000F0F2F94FF48850F8
:1021900000F0DEF9782000F0E9FE4FF4245000F062
:1021A000D7F90020FEF786FE0120034908604FF6AC
:1021B000FF70FEF765FE10BD8081214210B502461A
:1021C000012000E050430B00A1F10104E1B2F9D17C
:1021D00010BD000030B5044600230025082C1CD299
:1021E000DFE804F00406090C0F12151800BF14E014
:1021F00043F0800311E043F040030EE043F0C003DE
:102200000BE043F0200308E043F0600305E043F0F7
:10221000A00302E043F0E00300BF00BF4FF45855B5
:102220001946284600F0A4F92949488900F090F998
:10223000002000F087F926494989491C88B200F03E
:1022400087F9002000F07EF921494989891C88B26C
:1022500000F07EF91E490988491EC1F30F2000F0E5
:1022600071F91B494989C91C88B200F071F91849F4
:102270000978491EC8B200F065F91549888900F04F
:1022800067F9002000F05EF911498989491C88B27C
:1022900000F05EF9002000F055F90D498989891C8C
:1022A00088B200F055F90A494988491EC1F30F2048
:1022B00000F048F906498989C91C88B200F048F93C
:1022C00003498978491EC8B200F03CF930BD0000CE
:1022D0006C00002000B502460B461049488900F00A
:1022E00037F9101200F02EF90C494989491C88B2BF
:1022F00000F02EF9D0B200F025F90849888900F0E5
:1023000027F9181200F01EF904498989491C88B27E
:1023100000F01EF9D8B200F015F900BD6C000020E5
:102320002DE9F84F80460E4617461C46B346204618
:10233000E31704EB5373DB1021464FEAE47C04EB14
:102340005C7C4FEAEC0CA4EBCC0CBCF1000F02D08F
:102350004FF0010C01E04FF0000C6344224604EB07
:10236000D27C4FEA6C0C03FB0CF3DBB20093A7F1B9
:102370002000C7B2002556E00C2C07D107EB470020
:102380002B4901EB800010F8059013E0102C05D1CB
:10239000284800EB071010F805900BE0182C07D127
:1023A00007EBC700244901EB800010F8059001E01D
:1023B000BDE8F88F4FF0000A2FE009F0800030B13F
:1023C0001E48028831464046FEF72EFE07E00A9876
:1023D00028B91B48028831464046FEF725FE4FEAE1
:1023E00049604FEA1069701C86B216484088B042B6
:1023F00000DCDDE7A6EB0B00A0420AD15E4608F147
:1024000001001FFA80F80F480088404500DCCFE744
:1024100006E00AF1010000F0FF0ABAF1080FCCDB78
:1024200000BF681CC5B200988542A5DB00BFBFE7AE
:10243000D83200084C3700083C3D0008320000202C
:10244000340000206C0000202DE9FF4F81B00746CA
:1024500091461E460E9D4FF0000A002439E0301BC5
:10246000401EC1B20A20FFF7A9FEB9FBF0F00A2115
:10247000B0FBF1F201FB1208BAF1000F16D1701E89
:10248000A04213DDB8F1000F0ED10020AB4605EBE2
:10249000DB71491001FB0471009088B22B462022A9
:1024A0000299FFF73DFF12E04FF0010A0020AB4612
:1024B00005EBDB71491001FB0471009088B208F153
:1024C0003001CAB22B460299FFF72AFF00BF601CF9
:1024D000C4B2B442C3DB05B0BDE8F08F2DE9F847C4
:1024E00004460D4690469946DDE9096704F0FF0A67
:1024F00008EB04001FFA80F809EB05001FFA80F9C9
:1025000016E0444502DB5446A81985B24D4500DB70
:1025100014E0002000903A78334629462046FFF721
:10252000FFFE304606EBD07104EB61018CB27F1CDC
:1025300038787E2802DC38782028E2DA00BFBDE84F
:10254000F887000001490880704700000008006C0F
:102550000149088070470000FE07006C02480089AE
:1025600002490880704700006C000020FE07006CE4
:10257000024A1080921C118070470000FE07006C18
:102580001848806940F0080016498861084680694B
:1025900040F0400088611448006820F4700012493F
:1025A00008600846006840F4401008600E480C308F
:1025B000006840F020000C490C3108600B480068AE
:1025C00020F47000094908600846006840F4401093
:1025D000086006480C30006840F0200003490C31C8
:1025E0000860704700100240000C014000180140D4
:1025F0002DE9F0410746884614461D46284600F05E
:1026000033F8C5F1040007FA00F60F20284100EA6C
:102610000800064306F00F06E21704EBD2625211DF
:10262000920002F1E022D2F800212146E31704EBE8
:10263000D3635B11A4EB431C012303FA0CF31A438D
:102640002046E31704EBD3635B119B0003F1E02307
:10265000C3F800210348005D40EA0610014908550F
:10266000BDE8F08100E400E00146072323EA01020F
:102670001202054B18684FF6FF031840034B18432E
:102680001043014B186070470CED00E00000FA05A4
:1026900030B5002500230024364805882D04001D90
:1026A000008805443448B5FBF0F33448008898426C
:1026B0003AD032490B8040F2B2740EE02046FEF769
:1026C00035FA30B1B3F5B77F02D3A3F5B77302E0A3
:1026D00006E0A3F26D13601C84B2B3F5B67FEDD8AB
:1026E00000BF27488480002416E025498888FEF72B
:1026F0001DFA30B1012C04D11D2B01D31D3B09E083
:102700000CE02048005D984203D81E48005D1B1A6B
:1027100000E003E0601C84B21C2BE6D200BF601C0A
:1027200017498871581CC8711348B5FBF0F100FBBC
:1027300011534FF46160B3FBF0F0114908704FF48E
:102740006160B3FBF0F100FB11303C21B0FBF1F014
:102750000B4948704FF46160B3FBF0F100FB11309E
:102760003C21B0FBF1F201FB12000549887000200A
:1027700030BD000018280040805101003E000020BC
:1027800036000020984A0008002103480188001FF5
:10279000008841EA004070471C28004000B50B4803
:1027A000008800F0010008B1FFF772FF07480088B9
:1027B00040F6FA7108400549088000BF03480088C8
:1027C00000F020000028F9D000BD000004280040DF
:1027D0001CB500245A48008845F2500188427DD03B
:1027E0005848C06940F080505649C8610846C069E1
:1027F00040F00060C8615448006840F4807052495D
:1028000008605048006A40F480304E49086208462B
:10281000006A20F4803008620846006A40F0010037
:10282000086204E0601CC4B20A2000F081FB454845
:10283000006A08B9012000E0002000F0200008B183
:10284000FA2CEFDBFA2C01DB01201CBD3D48006AAD
:1028500040F480703B4908620846006A40F400403A
:10286000086200BF3948008800F020000028F9D035
:1028700000BF3648008800F008000028F9D033482F
:10288000001F008840F001003049091F08800846F9
:10289000008840F00200088000BF2C48008800F04B
:1028A00020000028F9D02948008840F0100027496E
:1028B00008800020091D088047F6FF70091D088068
:1028C00037202A2111230E22CDE90010012140F2E8
:1028D000DF7000F03DF81D48008800E00FE020F0B8
:1028E00010001A49088000BF1848008800F0200036
:1028F0000028F9D045F250001149088015E000BFCA
:102900001248008800F008000028F9D00F48001F86
:10291000008840F001000D49091F088000BF0B48E6
:10292000008800F020000028F9D0022303220021B3
:102930000846FFF75DFEFFF7ABFE002085E70000CD
:10294000046C004000100240007000400428004069
:102950002DE9F04F06460F4690469946DDE909AB52
:10296000002440F2B270864203DB40F63300864218
:1029700002DD0120BDE8F08F40F2B2750AE0284682
:10298000FEF7D4F810B12F48044401E02E48044467
:10299000681C85B2B542F2DB002510E02B48405D93
:1029A00040F2A321484304EBC0143046FEF7BEF8C2
:1029B00018B1012D01D126480444681C85B2BD42DE
:1029C000ECDBA8F1010040F2A321484304EBC01462
:1029D000C9EB4910C0EB092004EB0014CAEB0A1044
:1029E00004EB80045C441B48C06940F080501949E6
:1029F000C8610846C06940F00060C86116480068B8
:102A000040F48070144908601448008840F01000B9
:102A100012490880114918310C80200C091F0880C8
:102A20000E48008820F010000C49088000BF0B48B9
:102A3000008800F020000028F9D0FFF729FE0020D0
:102A400098E700000085E2018033E101984A000820
:102A50008051010000100240007000400428004036
:102A600010B50020074908604FF4967000F060FA36
:102A700001200549C1F8A0014FF4967000F058FA02
:102A800010BD0000A0812142008021422DE9FC41BF
:102A900006460F464FF402711E20FEF79FF80546CA
:102AA000062D70D2DFE805F0B5036A7C8CA1FFF734
:102AB0006BFE5C490968884205D95A4800685A4942
:102AC00008445849086000241BE0584800780A2848
:102AD0000DD157A010210B464FF4AF72CDE9001075
:102AE0004FF4D2713C20FFF7F9FCBDE8FC815B4854
:102AF00050F824004B490968884200D1F5E7601C72
:102B0000C4B24A4800788442DFDB4648016847483F
:102B100002780078401C454B1870504840F822104D
:102B20004FA01021CDE900101846007800EB80007E
:102B3000C82202EB800110233C20FFF7CFFC1020BD
:102B400000903A48007800EB8000C82202EB800138
:102B50000223454802783C20FFF776FC10200090C5
:102B60003248007800EB8000C82202EB800102238B
:102B70003E4802785420FFF767FC4BE03A48007863
:102B8000172801D1B1E744E02648006800F56160EC
:102B90002449086034480078401C3349087039E003
:102BA0003148007800B9A0E71E480068A0F56160D0
:102BB0001C4908602C480078401E2B49087029E009
:102BC0002A4800783B2800D18FE7164800683C303F
:102BD0001449086025480078401C3C2190FBF1F224
:102BE00001FB12002149087014E02048007800B968
:102BF0007BE70C4800683C380A4908601B480078AD
:102C00003B303C2190FBF1F201FB120017490870A8
:102C100000E000BF00BF3946304600F063F800BF57
:102C200063E7000024000020805101002B000020F9
:102C3000546865206D6178696D756D206E756D6283
:102C40006572206F6620616C61726D20636C6F63CA
:102C50006B732069732031300000000044000020B5
:102C600020203A2020000000280000202900002019
:102C700008B5102000901A488288042382213C2045
:102C8000FFF7E2FB10200090154882790223822191
:102C90006420FFF7D9FB102000901148C27902236D
:102CA00082217C20FFF7D0FB102000900C48027896
:102CB0000223A5213C20FFF7C7FB10200090084805
:102CC00042780223A5215420FFF7BEFB102000907C
:102CD000034882780223A5216C20FFF7B5FB08BDCD
:102CE00036000020F8B504460D461248008805213C
:102CF00090FBF1F0204486B21820009005F11000FE
:102D000081B202230C4802783046FFF79DFB182061
:102D1000084A0090168806EBD67204EB6202521F36
:102D200090B205F1100291B20223044A1278FFF723
:102D30008BFBF8BD0800002028000020290000209F
:102D40002DE9FC470746894615461C46DDF82880D4
:102D500000262846FDF704FA86B2204604EBD0711F
:102D6000491071438EB2464509DD0E48CDE9004554
:102D70004388028849463846FFF7B0FB0FE0A8EBCE
:102D8000060000EBD071C1F34F060649CDE90045BE
:102D90004B880A88F11988B24946FFF79FFBBDE8C6
:102DA000FC8700006C000020092100200022334B2A
:102DB0001A61DA6014225A6100229A61DA611A46B5
:102DC000126842F001021A601A4652682C4B1A40EF
:102DD0002A4B5A601A4612682A4B1A40274B1A602F
:102DE0001A46126822F480221A601A46526822F4A7
:102DF000FE025A6000229A60DA03234B1A601F4ACF
:102E0000126842F480321D4B1A6000BF1B4A1268E0
:102E1000520C002AFAD04FF48062184B5A608A1E76
:102E2000D1B21A46526842EA81425A601A46526842
:102E300042F480325A60154A126842F03202134B53
:102E40001A600E4A126842F080720C4B1A6000BF82
:102E50000A4A1268520E002AFAD0084A526842F012
:102E60000202064B5A6005E0044A5268C2F387002A
:102E700000F003000228F7D1704700000010024064
:102E80000000FFF8FFFFF6FE08ED00E00020024022
:102E90000020014908607047A0812142C1F3080267
:102EA000828000BF034A128802F04002002AF9D053
:102EB000704700000038014010B504460B4604E09E
:102EC00019782046FFF7EAFF5B1C18780028F7D135
:102ED00010BD02E008C8121F08C1002AFAD17047CD
:102EE0007047002001E001C1121F002AFBD170478A
:102EF0004FF0E021096921F004014FF0E022116157
:102F0000C21700EB5272C2F3C702074B1A70194680
:102F1000097801EB4102C2EBC1114FF6FF7202EAE0
:102F2000C101024A118070472E00002030000020AD
:102F300001460D4A12884A434FF0E0235A610022AD
:102F40009A6101221A6100BF4FF0E022106900F07F
:102F500001021AB100F48032002AF5D000224FF0AD
:102F6000E0231A619A6170473000002001460D4A43
:102F700012784A434FF0E0235A6100229A610122FD
:102F80001A6100BF4FF0E022106900F001021AB18F
:102F900000F48032002AF5D000224FF0E0231A61BD
:102FA0009A6170472E0000201CB5002500260027DE
:102FB000FFF7FAFE4FF4E131482000F01FF94820F6
:102FC000FFF796FFFFF7DCFAFDF7FCF9FDF7CCFD04
:102FD000FFF7FEFBFEF7B4F8FDF7C6FB4FF47840B1
:102FE0006149088061A010210B46C822CDE900107C
:102FF00046213C20FFF772FA5FA010210B46C82241
:10300000CDE900105A213C20FFF768FA5FA010219B
:103010000B46C822CDE900106E213C20FFF75EFA76
:103020001F20514908805BA010210B46C822CDE922
:10303000001082213C20FFF751FA59A010210B46C5
:10304000C822CDE90010A2213C20FFF747FA57A083
:1030500010210B464FF49672CDE90010C8213C2098
:10306000FFF73CFAD220574908804620564908808D
:103070004FF402711E20FDF705FB544800785449B7
:103080000870524840785349087050488078524937
:103090000870FFF779FB50490978401A801C4F49A6
:1030A00008604FF402711E20FFF71CFE5AE0002456
:1030B00021E0FFF769FB4A4951F82410884219D1F1
:1030C00048A14B48FFF7F8FE12E0FFF7C9FCFFF7F5
:1030D000CFFDFDF779FD01280AD1FFF7D9FE404861
:1030E00050F8240000F561603D4941F8240000E0FB
:1030F000EBE700BF641C3F4800788442D9DB3348CB
:103100000078A84203D031480578FFF7B1FD2F4879
:103110004078B0420AD02D484678102000902B48C5
:1031200042780223A5215420FFF78EF927488078A2
:10313000B84212D025488778102000902348827822
:103140000223A5216C20FFF77FF92B48006808B9FE
:10315000012000E00020284908604FF402711E2081
:10316000FFF794FCA3E7000032000020416C61727D
:103170006D5F417276696E00456D62656464656479
:10318000206578706572696D656E74003230313912
:103190002F360000202020202D20202D2020000070
:1031A00020203A20203A202000000000416C61726B
:1031B0006D206C69737420686173206265656E2090
:1031C00073657400080000200A000020360000200B
:1031D00028000020290000202A00002024000020D0
:1031E000440000202A2A416C61726D2A2A000000E6
:1031F000003801402B000020948121422DE9F05F2E
:1032000005460E463001FDF77AF881462E4905FB4A
:1032100001F0FDF774F882464946FDF732F807469B
:103220003846FDF771F884B22046FDF768F883460A
:103230003946FCF7F1FF82464FF08341FCF7EFFF80
:103240008146FDF761F880464FF6FF7000EA0414EE
:1032500004EB080084B21D48806940F004001B495B
:1032600088610846806940F4804088611848006899
:1032700020F47F60164908600846006840F40B603F
:1032800008601248C06840F480401049C860084691
:10329000C06820F48040C8600E480480001D00888B
:1032A00042F20C0108430B49091D088008460088BA
:1032B00040F0200008800223252203210846FFF762
:1032C00097F9BDE8F09F000040420F000010024057
:1032D0000408014008380140000000000000000020
:1032E00000000000000000003F400000000000005F
:1032F00000003000400030004000000009000BC01A
:103300003D000BC03D00090018C024407FE0224072
:1033100031800000180024C01B000D803240018065
:1033200003801C4027401C800740004010006000C4
:1033300000000000000000000000000000001F80EE
:10334000204040200000402020401F80000000005E
:10335000090006001F8006000900000004000400A8
:103360003F80040004000000001000600000000026
:103370000000000004000400040004000400000039
:10338000000000400000000000000000002001C01C
:1033900006003800400000001F80204020402040F0
:1033A0001F800000000010403FC0004000000000EF
:1033B00018C02140224024401840000010802040C6
:1033C000244024401B80000002000D0011003FC07B
:1033D000014000003C802440244024402380000021
:1033E0001F8024402440344003800000300020002F
:1033F00027C03800200000001B80244024402440C7
:103400001B8000001C0022C0224022401F800000C0
:103410000000000008400000000000000000000064
:103420000460000000000000000004000A00110019
:10343000208040400900090009000900090000003F
:1034400000004040208011000A0004001800200005
:1034500023402400180000001F80204027402940FE
:103460001F400000004007C039000F0001C00040AD
:1034700020403FC0244024401B8000001F8020408B
:10348000204020403080000020403FC020402040AD
:103490001F80000020403FC024402E4030C000006C
:1034A00020403FC024402E00300000000F0010805C
:1034B000204022403380020020403FC0040004002E
:1034C0003FC02040204020403FC02040204000001E
:1034D0000060202020203FC02000200020403FC06E
:1034E00024400B0030C0204020403FC0204000401E
:1034F000004000C03FC03C0003C03C003FC0000093
:1035000020403FC00C4023003FC020001F802040CF
:10351000204020401F80000020403FC02440240065
:10352000180000001F802140214020E01FA0000063
:1035300020403FC02440260019C0004018C024404D
:103540002440224031800000300020403FC0204015
:103550003000000020003F80004000403F802000FD
:1035600020003E0001C0070038002000380007C0DE
:103570003C0007C038000000204039C0060039C0B8
:10358000204000002000384007C0384020000000E4
:10359000304021C02640384020C00000000000001C
:1035A0007FE0402040200000000070000C000380FD
:1035B000004000000000402040207FE000000000AC
:1035C000000020004000200000000000001000105B
:1035D000001000100010001000000000400000006B
:1035E00000000000000002800540054003C00040CC
:1035F00020003FC00440044003800000000003801E
:1036000004400440064000000000038004402440C1
:103610003FC000400000038005400540034000001B
:10362000000004401FC0244024402000000002E0AD
:10363000055005500650042020403FC004400400BF
:1036400003C000400000044027C00040000000000C
:1036500000100010041027E00000000020403FC0D0
:103660000140070004C00440204020403FC000400B
:103670000040000007C0040007C0040003C00000B1
:10368000044007C00440040003C000400000038061
:103690000440044003800000041007F0045004407C
:1036A00003800000000003800440045007F0001075
:1036B000044007C00240040004000000000006406F
:1036C0000540054004C00000000004001F800440C5
:1036D00000400000040007800040044007C0004094
:1036E0000400070004C0018006000400060001C0B9
:1036F000070001C006000000044006C0010006C02B
:10370000044000000410071004E0018006000400DB
:103710000000044005C00640044000000000000016
:1037200004007BE040200000000000000000FFF0EB
:1037300000000000000040207BE0040000000000CA
:1037400040008000400020002000400000000000F9
:103750000000000000000000000000000000000069
:1037600000001FCC000C000000000000000008005A
:10377000300060000800300060000000022003FC00
:103780001E20022003FC1E200220000000000E1854
:1037900011043FFF10840C78000000000F0010841B
:1037A0000F3800C0077818840078000000780F8474
:1037B00010C411240E9800E400840008080068007A
:1037C0007000000000000000000000000000000089
:1037D000000007E01818200440020000000040022A
:1037E0002004181807E0000000000000024002401A
:1037F00001800FF001800240024000000080008044
:1038000000800FF800800080008000000001000DA3
:10381000000E00000000000000000000000000801A
:103820000080008000800080008000800000000C8C
:10383000000C000000000000000000000000000676
:10384000001800600180060018002000000007F04A
:10385000080810041004080807F00000000008041D
:1038600008041FFC000400040000000000000E0C0F
:1038700010141024104411840E0C000000000C18C9
:1038800010041104110412880C700000000000E004
:103890000320042408241FFC0024000000001F98BB
:1038A000108411041104108810700000000007F04B
:1038B00008881104110418880070000000001C0022
:1038C000100010FC13001C001000000000000E3857
:1038D00011441084108411440E38000000000700C9
:1038E000088C10441044088807F000000000000015
:1038F0000000030C030C00000000000000000000AA
:10390000000101060000000000000000000000802F
:1039100001400220041008081004000002200220C8
:1039200002200220022002200220000000001004D9
:1039300008080410022001400080000000000E0072
:103940001200100C106C10800F00000003E00C1827
:1039500013E4142417C4082807D000000004003C16
:1039600003C41C40074000E4001C000410041FFCBA
:103970001104110411040E880070000003E00C18FB
:1039800010041004100410081C10000010041FFC88
:10399000100410041004080807F0000010041FFCB5
:1039A0001104110417C410040818000010041FFCAF
:1039B0001104110017C010000800000003E00C18EB
:1039C0001004100410441C780040000010041FFC78
:1039D00010840080008010841FFC1004000010047C
:1039E00010041FFC1004100400000000000300017C
:1039F000100110011FFE10001000000010041FFC39
:103A0000110403801464181C1004000010041FFC2F
:103A10001004000400040004000C000010041FFC4B
:103A20001F0000FC1F001FFC1004000010041FFCFE
:103A30000C04030000E010181FFC100007F0080839
:103A4000100410041004080807F0000010041FFC04
:103A500010841080108010800F00000007F00818FC
:103A600010241024101C080A07F2000010041FFC88
:103A70001104110011C011300E0C000400000E1CC6
:103A800011041084108410441C3800001800100029
:103A900010041FFC100410001800000010001FF894
:103AA00010040004000410041FF8100010001E0091
:103AB00011E0001C007013801C0010001FC0103C9F
:103AC00000E01F0000E0103C1FC000001004180CB4
:103AD000163401C001C01634180C100410001C006C
:103AE000130400FC13041C00100000000804101C48
:103AF0001064108413041C0410180000000000005F
:103B000000007FFE40024002400200000000300042
:103B10000C0003800060001C000300000000400255
:103B2000400240027FFE0000000000000000000094
:103B30002000400040004000200000000001000183
:103B4000000100010001000100010001000040002F
:103B5000400020000000000000000000000000986D
:103B6000012401440144014400FC000410001FFC36
:103B7000008801040104008800700000000000704B
:103B800000880104010401040088000000000070A6
:103B900000880104010411081FFC0004000000F863
:103BA000014401440144014400C800000000010434
:103BB00001040FFC1104110411001800000000D6CC
:103BC00001290129012901C90106000010041FFC77
:103BD000008401000100010400FC00040000010455
:103BE000190419FC00040004000000000000000398
:103BF00000010101190119FE0000000010041FFC62
:103C00000024004001B4010C010400000000100475
:103C100010041FFC0004000400000000010401FC6B
:103C20000104010001FC0104010000FC010401FC8D
:103C3000008401000100010400FC0004000000F801
:103C4000010401040104010400F80000010101FF66
:103C5000008501040104008800700000000000706D
:103C6000008801040104010501FF000101040104B1
:103C700001FC00840104010001800000000000CC70
:103C80000124012401240124019800000000010006
:103C9000010007F80104010400000000010001F820
:103CA000000400040004010801FC0004010001807C
:103CB0000170000C001001600180010001F0010C96
:103CC000003001C00030010C01F0010000000104CF
:103CD000018C00740170018C01040000010101815C
:103CE0000171000E001801600180010000000184D4
:103CF000010C013401440184010C000000000000AB
:103D00000000000001003EFC4002400200000000F4
:103D100000000000FFFF0000000000000000400263
:103D200040023EFC010000000000000000006000B6
:103D300080008000400040002000200000000000C3
:103D40000000000000000000000000000000000073
:103D50000000000000000000000000000000000063
:103D60000000000000000000000000000000000F44
:103D700080380FFE380F803800000000000000007F
:103D8000000000000000000000000100000600002C
:103D90000C00003800003100000600000C00003864
:103DA000000030000000000000000000618000679B
:103DB000F807F98000618000618000618000618007
:103DC0000067F807F9800061800000000000000033
:103DD000000001C0E003E0F00630080418081FFFEF
:103DE000FE040E080787F00381E0000000000000D9
:103DF00001F000060C00040408060C7001F9C00074
:103E00000E00003BE000EC18070808040C18000343
:103E1000E00000000001E00007F003F818041C08AF
:103E200004170807E1D003C0E00023B0003C0800FD
:103E30002008000010000000000000010000310018
:103E4000003200001C000000000000000000000024
:103E50000000000000000000000000000000000062
:103E60000000000000000000000000007F0001FFD3
:103E7000C00780F00C0018100004200002000000B1
:103E80000000002000021000040C00180780F00160
:103E9000FFC0007F000000000000000000000000E4
:103EA0000000000000000000420000660000660004
:103EB000003C0000180003FFC0001800003C000098
:103EC00066000066000042000000000008000008D4
:103ED0000000080000080000080001FFC000080002
:103EE00000080000080000080000080000000000B2
:103EF000000100003100003200001C000000000042
:103F000000000000000000000000000000000000B1
:103F10000000000008000008000008000008000081
:103F20000800000800000800000800000800000861
:103F30000000000000000000000000003800003811
:103F40000000380000000000000000000000000039
:103F5000000000000000000000000000000600005B
:103F60001C000070000180000E0000380000C0003E
:103F70000700001C000030000000000000000000EE
:103F80007F8001FFE0038070060018040008040031
:103F90000806001803807001FFE0007F8000000029
:103FA00000000000000001000801000801000803F3
:103FB000FFF807FFF80000080000080000080000F4
:103FC0000000000000000001C03802C05804009842
:103FD000040118040218040418061C1803F8180138
:103FE000E0F800000000000000000001C0E003C095
:103FF000F004000804080804080806180803F41868
:1040000001E7F00001E000000000000000000000F7
:104010000300000D00001100006100008108030191
:104020000807FFF80FFFF800010800010800000072
:104030000000000000E007FCD00608080610080693
:104040001008061008061838060FF00607C0000012
:1040500000000000000000003F8001FFE00384300A
:1040600002081804100804100804100807181003A8
:104070000FF00007C000000000000000000003C0B7
:10408000000700000600000600F80607F806180002
:1040900006E000070000060000000000000000012C
:1040A000E1E003F7F0063410041808041808040CC3
:1040B00008040C0806161803F3F001C1E000000024
:1040C00000000000F80003FC300306380402080476
:1040D00002080402080404100308F001FFC0007F76
:1040E00000000000000000000000000000000000D0
:1040F00000000000703800703800703800000000C8
:1041000000000000000000000000000000000000AF
:104110000000000000000000301A00301C00000009
:10412000000000000000000000000000000000008F
:104130000000000800001400002200004100008080
:104140008001004002002004001008000800000068
:1041500000000000210000210000210000210000DB
:104160002100002100002100002100002100002189
:10417000000000000000000000000800080400101B
:104180000200200100400080800041000022000069
:10419000140000080000000000000003C00004C07C
:1041A00000040000080038080F380808380810001C
:1041B0000C300007E00003C0000000000000000019
:1041C0003F8000FFE0038070020F1006708804C07B
:1041D00088048308047F8802C09003012000FE4009
:1041E0000000080000180001F8003E0801C20007A6
:1041F000020007E20000FE00001FC80001F80000F6
:104200003800000804000807FFF807FFF804080852
:1042100004080804080804080806180803F418012C
:10422000E7F00001E0000000000000003F8001FF17
:10423000E00380700200180400080400080400086D
:104240000400100600200780C000000004000807DA
:10425000FFF807FFF8040008040008040008040041
:104260001802001003807001FFE0007F8000000052
:1042700004000807FFF807FFF8040808040808040A
:104280000808040808043E08040008060018010095
:104290006000000004000807FFF807FFF8040808A2
:1042A000040800040800040800043E00060000069C
:1042B0000000018000000000000000003F8001FFBE
:1042C000E0038070060018040008040208040208D5
:1042D0000203F00783F00002000002000400080758
:1042E000FFF807FFF80408080008000008000008AD
:1042F0000000080004080807FFF807FFF80400089A
:104300000000000000000400080400080400080782
:10431000FFF807FFF8040008040008040008000084
:10432000000000000000000000060000070000017F
:1043300004000104000104000307FFFE07FFFC0462
:10434000000004000004000004000807FFF807FF55
:10435000F8040C08001800003E0004C7800503C8DC
:104360000600F804003804001800000804000807DC
:10437000FFF807FFF804000800000800000800002C
:10438000080000080000080000180000600000009D
:1043900004000807FFF807800807FC00007FC00042
:1043A00003F80007C000780007800807FFF807FF40
:1043B000F804000804000807FFF807000803C0001D
:1043C00000E000003800001E000007000001C004EB
:1043D00000F007FFF8040000000000007F8001FFEC
:1043E000E0038070060018040008040008060018A6
:1043F00003003001FFE0007F800000000400080798
:10440000FFF807FFF804040804040004040004048F
:1044100000040400060C0003F80001F00000000096
:10442000000000007F8001FFE00380700600880428
:1044300000880400C806003C03003E01FFE6007F40
:104440008400000004000807FFF807FFF8040808CC
:10445000040800040C00040F00040BC00610F00355
:10446000F03801E00800000800000001E0F803F067
:1044700030063010041808041808040C08040C084E
:104480000206180207F00781E00000000180000624
:10449000000004000004000004000807FFF807FF04
:1044A000F804000804000004000006000001800079
:1044B00004000007FFE007FFF004001800000800F8
:1044C000000800000800000800000804001007FFB2
:1044D000E004000004000006000007E00007FE0002
:1044E000041FE00001F80000380001E0043E00076E
:1044F000C00006000004000004000007E00007FF01
:10450000C0041FF80007C007F80007FF80043FF849
:104510000007C004F80007000004000000000004C9
:10452000000806001807C07805F1C8003E00001F0B
:10453000800463E80780F806001804000800000003
:1045400004000006000007800007E008047C080063
:104550001FF80007F800180804E00807000006002C
:10456000000400000000000100080600380400F804
:104570000403E8040F08047C0805F00807C00807D6
:1045800000180400600000000000000000000000AF
:10459000000000000000003FFFFE2000022000029B
:1045A00020000220000220000200000000000000A5
:1045B000000008000007000000C0000038000006EE
:1045C000000001C000003000000E000001000000EB
:1045D0000000000000002000022000022000022055
:1045E00000022000023FFFFE00000000000000006B
:1045F00000000000000000000000000000080000B3
:104600001000003000002000003000001000000802
:104610000000000000000000000001000001000098
:104620000100000100000100000100000100000184
:104630000000010000010000010000010000000076
:10464000000000000020000020000010000010000A
:10465000000000000000000000000000000000005A
:104660000000000000F00019F8001B1800220800EC
:104670002608002408002410003FF8001FF800005E
:104680000800001800000004000007FFF80FFFF00A
:10469000001818001008002008002008003018003A
:1046A0001FF0000FC00000000000000007C0001F46
:1046B000F0001830002008002008002008003C0806
:1046C000001C10000060000000000000000000005E
:1046D00007C0001FF0003818002008002008002044
:1046E0000804101007FFF80FFFF000001000000092
:1046F0000000000000000007C0001FF000123000A2
:104700002218002208002208003208001E10000EA5
:104710002000000000000000200000200800200809
:1047200001FFF803FFF8062008042008042008070A
:10473000200003000000000000000000000E000E3A
:104740006E001FF30031B10020B10020B1003191A3
:10475000001F13002E1E00200E0030000000000479
:10476000000807FFF80FFFF80010080020000020E5
:1047700000002008003FF8001FF8000008000000BB
:1047800000000000000000200800200800200806AB
:104790003FF8063FF800000800000800000800008D
:1047A0000000000000000000000000000300000303
:1047B000002001002001002003063FFE063FFC0010
:1047C000000000000000000000000004000807FFD7
:1047D000F80FFFF8000188000300002FC00038F830
:1047E0000020380020080000080000000000000041
:1047F000000004000804000804000807FFF80FFF89
:10480000F800000800000800000800000000000098
:10481000002008003FF8003FF800100800200000CA
:104820003FF8003FF8001008002000003FF8003F6C
:10483000F8000008000000002008003FF8003FF8E2
:10484000001008001000002000002008003FF800C1
:104850001FF80000080000000000000007C0000F63
:10486000F000183000300800200800200800300850
:10487000001830000FF00007C0000000000000002A
:104880002001003FFF003FFF001011002009002021
:1048900008002008003038001FF0000FC0000000A2
:1048A0000000000007C0001FF000381800200800BA
:1048B0002008002009001011001FFF003FFF00002A
:1048C00001000000002008002008002008003FF838
:1048D000003FF80008080010080020080020000031
:1048E0003000003000000000000000000000000C5C
:1048F00078001E18003308002308002108002188D2
:104900000021980030F00038600000000000000036
:10491000200000200000200000FFF003FFF800202E
:1049200008002008002008000030000000000000FF
:10493000000000002000003FF0007FF80000180099
:104940000008000008002010003FF8007FF0000081
:1049500010000000000000002000003000003C00BB
:10496000003F800023F000007800007000238000EA
:104970003C00003000002000002000003C00003F10
:10498000E00023F80000E0002700003E00003FE0C8
:104990000021F80001E0003E0000200000000000BF
:1049A0002008002008003838003E680027800003F7
:1049B000C8002CF80038380020180020080000003B
:1049C000000000002000003003003C01003F830095
:1049D00023EC000070002380003C00002000002039
:1049E000000000000000000000000038080020382F
:1049F0000020F80023E8002F88003E080038080057
:104A000020180000700000000000000000000000FE
:104A1000000000000000000008000014001FF7FC68
:104A2000300006200002000000000000000000002E
:104A30000000000000000000000000000000FFFF78
:104A4000FF00000000000000000000000000000067
:104A50000000000000002000023000061FF7FC00EC
:104A6000140000080000000000000000000000002A
:104A7000000000000000001800006000004000007E
:104A800040000020000010000008000004000004A6
:104A900000000C00001000001F1C1F1E1F1E1F1F07
:104AA0001E1F1E1F60E001200305350002081E08BE
:104AB000503C0F050000FF67500000181A1E1489B3
:104AC000280A302EBB0A03000002331D000000003C
:104AD0000000003200002A1C5A94C50207000000A2
:104AE000B51F00902800773200623F0052500052FC
:104AF00000000000000000000000000000000000B6
:104B0000000000000000000F0F03061042F80F1411
:104B1000000000001A18161412100E0C0A080000EB
:104B20000000000000000000000000000000000085
:104B3000000029282422201F1E1D0E0C0A0806052D
:104B4000040200FF0000000000000000000000FF61
:104B5000FFFFFFFFFFFFFFFFFFFFFFFF50815881B7
:104B60006081688170810000537562283168290076
:104B7000416464283168290053756228316D696E7B
:104B80002900000041646428316D696E290000002D
:104B900041646420416C61726D0000002020682D2A
:104BA0002020206D696E0000C84B00080000002026
:104BB00044000000D22E00080C4C000844000020E5
:104BC0004C040000E22E000801000000000000007C
:104BD000D2001E009C4B0008904B0008704B000850
:104BE000684B0008844B0008784B00080000000068
:104BF000000000000000000000000000FFFF0000B7
:0C4C0000000000000000000000000000A8
:0400000508000131BD
:00000001FF
